:020000040000FA
:020000002E28A8
:040002000034003492
:08000800F000030EF100831269
:1000100003130B194221831203130C1818218312A6
:1000200003130B18682183120313710E8300F00E63
:04003000700E090045
:10004000831203138A0182073F3406345B344F3432
:1000500066346D347D3407347F346F348316031770
:100060000F30880089013230B100B20083160313CB
:100070000F308500013086008030870088018901BB
:100080009F0183160313033081008316031301308D
:100090009500831603130130960083120313013079
:1000A000900083160313243098008316031319302D
:1000B00099008312031390309800831603130C14D5
:1000C00083120313E8308B00831203138501870129
:1000D00088018901AC01A901B501FA30AD00AF007A
:1000E0006430AE00B0000530AA000530AB008312CA
:1000F00003137A28F020831203138C1AD42083125E
:10010000031320082207A50021082307A6002508BD
:10011000260203198E280318952897283230B1003B
:10012000FA30AD006430AE009928762199288021FC
:10013000992820082107A70022082307A8002708DC
:1001400028020319A6280318AD28AF283230B200C0
:10015000FA30AF006430B000B1289421B1288A2170
:10016000B12831089E21AA0032089E21AB008312DB
:1001700003133508013A031DD228B5015830B221C6
:100180003A30B2212A08303EB2212030B221593013
:10019000B2213A30B2212B08303EB2210D30B221CB
:1001A0000A30B221A9217A28831203131A08831274
:1001B0000313B400433A0319DE2808003230B100BB
:1001C000B200FA30AD00AF006430AE00B0004F3086
:1001D000B2214B30B2210D30B2210A30B2210800D9
:1001E0008312031341309F0013219F149F18F62898
:1001F0001E08A00045309F0013219F149F18FE2861
:100200001E08A10049309F0013219F149F18062942
:100210001E08A2004D309F0013219F149F180E2925
:100220001E08A30008001430A400A40B1529080020
:10023000831203130C102C08003A031924292C08EC
:10024000013A03192E2939298312031307152D08A2
:100250008F002E088E000130AC00080083120313BB
:10026000071187142F088F0030088E000230AC0071
:100270000800831203138710BD308F0098308E0062
:10028000AC010800831203130B118312031309102E
:100290008910831203132908013A03195C292A08DB
:1002A000202083120313880083120313091483127E
:1002B00003130130A90008002B0820208312031328
:1002C000880083120313891483120313A901080001
:1002D000831203130608831203130B1083120313F4
:1002E000061C732908000130B50008003108633A84
:1002F000031908000A30AE02031CAD03B10A08005E
:100300003108003A031908000A30AE070318AD0A95
:10031000B10308003208633A031908000A30B0023A
:10032000031CAF03B20A08003208003A03190800A0
:100330000A30B0070318AF0AB2030800B301B400D3
:100340000A303402031CA729B400B30AA0293308D9
:1003500008001930B600FF30B700B70BAD29B60B57
:10036000AB290800831203130C1EB4298312031354
:0403700099000800E8
:02400E00E120AF
:02401000FF3F70
:00000001FF
